{
  "_format": "hh-sol-artifact-1",
  "contractName": "ProjectEscrowV6",
  "sourceName": "contracts/ProjectEscrowV6.sol",
  "abi": [
    {
      "inputs": [
        {
          "internalType": "address",
          "name": "_projectCreator",
          "type": "address"
        },
        {
          "internalType": "uint256",
          "name": "_targetAmount",
          "type": "uint256"
        },
        {
          "internalType": "address",
          "name": "_usdcToken",
          "type": "address"
        },
        {
          "internalType": "uint256",
          "name": "_fundingDeadline",
          "type": "uint256"
        }
      ],
      "stateMutability": "nonpayable",
      "type": "constructor"
    },
    {
      "anonymous": false,
      "inputs": [
        {
          "indexed": true,
          "internalType": "enum ProjectEscrowV6.CampaignState",
          "name": "newState",
          "type": "uint8"
        },
        {
          "indexed": false,
          "internalType": "uint256",
          "name": "timestamp",
          "type": "uint256"
        }
      ],
      "name": "CampaignStateChanged",
      "type": "event"
    },
    {
      "anonymous": false,
      "inputs": [
        {
          "indexed": true,
          "internalType": "uint256",
          "name": "milestoneId",
          "type": "uint256"
        },
        {
          "indexed": false,
          "internalType": "string",
          "name": "discussionHash",
          "type": "string"
        }
      ],
      "name": "DiscussionThreadCreated",
      "type": "event"
    },
    {
      "anonymous": false,
      "inputs": [
        {
          "indexed": true,
          "internalType": "uint256",
          "name": "milestoneId",
          "type": "uint256"
        },
        {
          "indexed": false,
          "internalType": "uint256",
          "name": "newReleaseableAt",
          "type": "uint256"
        }
      ],
      "name": "DisputeResumed",
      "type": "event"
    },
    {
      "anonymous": false,
      "inputs": [
        {
          "indexed": true,
          "internalType": "address",
          "name": "donor",
          "type": "address"
        },
        {
          "indexed": false,
          "internalType": "uint256",
          "name": "amount",
          "type": "uint256"
        },
        {
          "indexed": false,
          "internalType": "uint256",
          "name": "timestamp",
          "type": "uint256"
        }
      ],
      "name": "DonationReceived",
      "type": "event"
    },
    {
      "anonymous": false,
      "inputs": [
        {
          "indexed": false,
          "internalType": "uint256",
          "name": "timestamp",
          "type": "uint256"
        }
      ],
      "name": "EmergencyPaused",
      "type": "event"
    },
    {
      "anonymous": false,
      "inputs": [
        {
          "indexed": false,
          "internalType": "uint256",
          "name": "timestamp",
          "type": "uint256"
        }
      ],
      "name": "EmergencyUnpaused",
      "type": "event"
    },
    {
      "anonymous": false,
      "inputs": [
        {
          "indexed": false,
          "internalType": "uint256",
          "name": "totalRaised",
          "type": "uint256"
        },
        {
          "indexed": false,
          "internalType": "uint256",
          "name": "timestamp",
          "type": "uint256"
        }
      ],
      "name": "FundingGoalReached",
      "type": "event"
    },
    {
      "anonymous": false,
      "inputs": [
        {
          "indexed": true,
          "internalType": "address",
          "name": "oldGuardian",
          "type": "address"
        },
        {
          "indexed": true,
          "internalType": "address",
          "name": "newGuardian",
          "type": "address"
        }
      ],
      "name": "GuardianTransferred",
      "type": "event"
    },
    {
      "anonymous": false,
      "inputs": [
        {
          "indexed": true,
          "internalType": "uint256",
          "name": "milestoneId",
          "type": "uint256"
        }
      ],
      "name": "MilestoneCancelled",
      "type": "event"
    },
    {
      "anonymous": false,
      "inputs": [
        {
          "indexed": true,
          "internalType": "uint256",
          "name": "milestoneId",
          "type": "uint256"
        },
        {
          "indexed": false,
          "internalType": "uint256",
          "name": "vetoWeight",
          "type": "uint256"
        },
        {
          "indexed": false,
          "internalType": "uint256",
          "name": "quorum",
          "type": "uint256"
        }
      ],
      "name": "MilestoneDisputed",
      "type": "event"
    },
    {
      "anonymous": false,
      "inputs": [
        {
          "indexed": true,
          "internalType": "uint256",
          "name": "milestoneId",
          "type": "uint256"
        },
        {
          "indexed": false,
          "internalType": "uint256",
          "name": "amount",
          "type": "uint256"
        },
        {
          "indexed": true,
          "internalType": "address",
          "name": "recipient",
          "type": "address"
        }
      ],
      "name": "MilestoneReleased",
      "type": "event"
    },
    {
      "anonymous": false,
      "inputs": [
        {
          "indexed": true,
          "internalType": "uint256",
          "name": "milestoneId",
          "type": "uint256"
        },
        {
          "indexed": false,
          "internalType": "uint256",
          "name": "amount",
          "type": "uint256"
        },
        {
          "indexed": false,
          "internalType": "uint256",
          "name": "releaseableAt",
          "type": "uint256"
        },
        {
          "indexed": false,
          "internalType": "string",
          "name": "ipfsHash",
          "type": "string"
        }
      ],
      "name": "MilestoneRequested",
      "type": "event"
    },
    {
      "anonymous": false,
      "inputs": [
        {
          "indexed": true,
          "internalType": "uint256",
          "name": "milestoneId",
          "type": "uint256"
        },
        {
          "indexed": true,
          "internalType": "address",
          "name": "voter",
          "type": "address"
        },
        {
          "indexed": false,
          "internalType": "uint256",
          "name": "totalVetoWeight",
          "type": "uint256"
        }
      ],
      "name": "MilestoneVetoed",
      "type": "event"
    },
    {
      "anonymous": false,
      "inputs": [
        {
          "indexed": false,
          "internalType": "uint256",
          "name": "timestamp",
          "type": "uint256"
        }
      ],
      "name": "ProjectCancelled",
      "type": "event"
    },
    {
      "anonymous": false,
      "inputs": [
        {
          "indexed": true,
          "internalType": "uint256",
          "name": "milestoneId",
          "type": "uint256"
        },
        {
          "indexed": false,
          "internalType": "string",
          "name": "ipfsHash",
          "type": "string"
        }
      ],
      "name": "ProofUploaded",
      "type": "event"
    },
    {
      "anonymous": false,
      "inputs": [
        {
          "indexed": true,
          "internalType": "address",
          "name": "donor",
          "type": "address"
        },
        {
          "indexed": false,
          "internalType": "uint256",
          "name": "amount",
          "type": "uint256"
        }
      ],
      "name": "RefundClaimed",
      "type": "event"
    },
    {
      "inputs": [],
      "name": "COOLING_PERIOD",
      "outputs": [
        {
          "internalType": "uint256",
          "name": "",
          "type": "uint256"
        }
      ],
      "stateMutability": "view",
      "type": "function"
    },
    {
      "inputs": [],
      "name": "TARGET_BUFFER",
      "outputs": [
        {
          "internalType": "uint256",
          "name": "",
          "type": "uint256"
        }
      ],
      "stateMutability": "view",
      "type": "function"
    },
    {
      "inputs": [],
      "name": "VETO_QUORUM",
      "outputs": [
        {
          "internalType": "uint256",
          "name": "",
          "type": "uint256"
        }
      ],
      "stateMutability": "view",
      "type": "function"
    },
    {
      "inputs": [
        {
          "internalType": "uint256",
          "name": "_milestoneId",
          "type": "uint256"
        },
        {
          "internalType": "string",
          "name": "_discussionHash",
          "type": "string"
        }
      ],
      "name": "addDiscussionThread",
      "outputs": [],
      "stateMutability": "nonpayable",
      "type": "function"
    },
    {
      "inputs": [
        {
          "internalType": "address",
          "name": "_user",
          "type": "address"
        }
      ],
      "name": "calculateRefund",
      "outputs": [
        {
          "internalType": "uint256",
          "name": "",
          "type": "uint256"
        }
      ],
      "stateMutability": "view",
      "type": "function"
    },
    {
      "inputs": [],
      "name": "campaignState",
      "outputs": [
        {
          "internalType": "enum ProjectEscrowV6.CampaignState",
          "name": "",
          "type": "uint8"
        }
      ],
      "stateMutability": "view",
      "type": "function"
    },
    {
      "inputs": [
        {
          "internalType": "uint256",
          "name": "_milestoneId",
          "type": "uint256"
        }
      ],
      "name": "cancelMilestone",
      "outputs": [],
      "stateMutability": "nonpayable",
      "type": "function"
    },
    {
      "inputs": [],
      "name": "cancelProject",
      "outputs": [],
      "stateMutability": "nonpayable",
      "type": "function"
    },
    {
      "inputs": [],
      "name": "claimRefund",
      "outputs": [],
      "stateMutability": "nonpayable",
      "type": "function"
    },
    {
      "inputs": [
        {
          "internalType": "address",
          "name": "_donor",
          "type": "address"
        },
        {
          "internalType": "bytes",
          "name": "_signature",
          "type": "bytes"
        }
      ],
      "name": "claimRefundWithSignature",
      "outputs": [],
      "stateMutability": "nonpayable",
      "type": "function"
    },
    {
      "inputs": [
        {
          "internalType": "address",
          "name": "",
          "type": "address"
        }
      ],
      "name": "contributions",
      "outputs": [
        {
          "internalType": "uint256",
          "name": "",
          "type": "uint256"
        }
      ],
      "stateMutability": "view",
      "type": "function"
    },
    {
      "inputs": [
        {
          "internalType": "uint256",
          "name": "",
          "type": "uint256"
        }
      ],
      "name": "contributors",
      "outputs": [
        {
          "internalType": "address",
          "name": "",
          "type": "address"
        }
      ],
      "stateMutability": "view",
      "type": "function"
    },
    {
      "inputs": [
        {
          "internalType": "address",
          "name": "_donor",
          "type": "address"
        },
        {
          "internalType": "uint256",
          "name": "_amount",
          "type": "uint256"
        }
      ],
      "name": "depositForDonor",
      "outputs": [],
      "stateMutability": "nonpayable",
      "type": "function"
    },
    {
      "inputs": [],
      "name": "emergencyWithdraw",
      "outputs": [],
      "stateMutability": "nonpayable",
      "type": "function"
    },
    {
      "inputs": [],
      "name": "fundingDeadline",
      "outputs": [
        {
          "internalType": "uint256",
          "name": "",
          "type": "uint256"
        }
      ],
      "stateMutability": "view",
      "type": "function"
    },
    {
      "inputs": [],
      "name": "getAvailableBalance",
      "outputs": [
        {
          "internalType": "uint256",
          "name": "",
          "type": "uint256"
        }
      ],
      "stateMutability": "view",
      "type": "function"
    },
    {
      "inputs": [],
      "name": "getBalance",
      "outputs": [
        {
          "internalType": "uint256",
          "name": "",
          "type": "uint256"
        }
      ],
      "stateMutability": "view",
      "type": "function"
    },
    {
      "inputs": [],
      "name": "getCampaignState",
      "outputs": [
        {
          "internalType": "enum ProjectEscrowV6.CampaignState",
          "name": "",
          "type": "uint8"
        }
      ],
      "stateMutability": "view",
      "type": "function"
    },
    {
      "inputs": [],
      "name": "getContributorCount",
      "outputs": [
        {
          "internalType": "uint256",
          "name": "",
          "type": "uint256"
        }
      ],
      "stateMutability": "view",
      "type": "function"
    },
    {
      "inputs": [],
      "name": "getCurrentQuorum",
      "outputs": [
        {
          "internalType": "uint256",
          "name": "",
          "type": "uint256"
        }
      ],
      "stateMutability": "pure",
      "type": "function"
    },
    {
      "inputs": [
        {
          "internalType": "uint256",
          "name": "_milestoneId",
          "type": "uint256"
        }
      ],
      "name": "getMilestone",
      "outputs": [
        {
          "internalType": "uint256",
          "name": "amount",
          "type": "uint256"
        },
        {
          "internalType": "string",
          "name": "description",
          "type": "string"
        },
        {
          "internalType": "string",
          "name": "ipfsHash",
          "type": "string"
        },
        {
          "internalType": "string",
          "name": "discussionHash",
          "type": "string"
        },
        {
          "internalType": "uint256",
          "name": "requestedAt",
          "type": "uint256"
        },
        {
          "internalType": "uint256",
          "name": "releaseableAt",
          "type": "uint256"
        },
        {
          "internalType": "enum ProjectEscrowV6.MilestoneStatus",
          "name": "status",
          "type": "uint8"
        },
        {
          "internalType": "uint256",
          "name": "vetoWeight",
          "type": "uint256"
        }
      ],
      "stateMutability": "view",
      "type": "function"
    },
    {
      "inputs": [],
      "name": "getMilestoneCount",
      "outputs": [
        {
          "internalType": "uint256",
          "name": "",
          "type": "uint256"
        }
      ],
      "stateMutability": "view",
      "type": "function"
    },
    {
      "inputs": [],
      "name": "getVetoQuorumThreshold",
      "outputs": [
        {
          "internalType": "uint256",
          "name": "",
          "type": "uint256"
        }
      ],
      "stateMutability": "view",
      "type": "function"
    },
    {
      "inputs": [],
      "name": "guardian",
      "outputs": [
        {
          "internalType": "address",
          "name": "",
          "type": "address"
        }
      ],
      "stateMutability": "view",
      "type": "function"
    },
    {
      "inputs": [
        {
          "internalType": "address",
          "name": "",
          "type": "address"
        }
      ],
      "name": "hasClaimedRefund",
      "outputs": [
        {
          "internalType": "bool",
          "name": "",
          "type": "bool"
        }
      ],
      "stateMutability": "view",
      "type": "function"
    },
    {
      "inputs": [
        {
          "internalType": "uint256",
          "name": "_milestoneId",
          "type": "uint256"
        },
        {
          "internalType": "address",
          "name": "_user",
          "type": "address"
        }
      ],
      "name": "hasUserVetoed",
      "outputs": [
        {
          "internalType": "bool",
          "name": "",
          "type": "bool"
        }
      ],
      "stateMutability": "view",
      "type": "function"
    },
    {
      "inputs": [],
      "name": "isFundingActive",
      "outputs": [
        {
          "internalType": "bool",
          "name": "",
          "type": "bool"
        }
      ],
      "stateMutability": "view",
      "type": "function"
    },
    {
      "inputs": [
        {
          "internalType": "uint256",
          "name": "",
          "type": "uint256"
        }
      ],
      "name": "milestones",
      "outputs": [
        {
          "internalType": "uint256",
          "name": "amount",
          "type": "uint256"
        },
        {
          "internalType": "string",
          "name": "description",
          "type": "string"
        },
        {
          "internalType": "string",
          "name": "ipfsHash",
          "type": "string"
        },
        {
          "internalType": "string",
          "name": "discussionHash",
          "type": "string"
        },
        {
          "internalType": "uint256",
          "name": "requestedAt",
          "type": "uint256"
        },
        {
          "internalType": "uint256",
          "name": "releaseableAt",
          "type": "uint256"
        },
        {
          "internalType": "enum ProjectEscrowV6.MilestoneStatus",
          "name": "status",
          "type": "uint8"
        },
        {
          "internalType": "uint256",
          "name": "vetoWeight",
          "type": "uint256"
        }
      ],
      "stateMutability": "view",
      "type": "function"
    },
    {
      "inputs": [],
      "name": "pause",
      "outputs": [],
      "stateMutability": "nonpayable",
      "type": "function"
    },
    {
      "inputs": [],
      "name": "paused",
      "outputs": [
        {
          "internalType": "bool",
          "name": "",
          "type": "bool"
        }
      ],
      "stateMutability": "view",
      "type": "function"
    },
    {
      "inputs": [],
      "name": "projectCreator",
      "outputs": [
        {
          "internalType": "address",
          "name": "",
          "type": "address"
        }
      ],
      "stateMutability": "view",
      "type": "function"
    },
    {
      "inputs": [
        {
          "internalType": "uint256",
          "name": "_milestoneId",
          "type": "uint256"
        }
      ],
      "name": "releaseMilestone",
      "outputs": [],
      "stateMutability": "nonpayable",
      "type": "function"
    },
    {
      "inputs": [
        {
          "internalType": "uint256",
          "name": "_amount",
          "type": "uint256"
        },
        {
          "internalType": "string",
          "name": "_description",
          "type": "string"
        },
        {
          "internalType": "string",
          "name": "_ipfsHash",
          "type": "string"
        }
      ],
      "name": "requestMilestone",
      "outputs": [],
      "stateMutability": "nonpayable",
      "type": "function"
    },
    {
      "inputs": [
        {
          "internalType": "uint256",
          "name": "_milestoneId",
          "type": "uint256"
        }
      ],
      "name": "resumeMilestone",
      "outputs": [],
      "stateMutability": "nonpayable",
      "type": "function"
    },
    {
      "inputs": [],
      "name": "targetAmount",
      "outputs": [
        {
          "internalType": "uint256",
          "name": "",
          "type": "uint256"
        }
      ],
      "stateMutability": "view",
      "type": "function"
    },
    {
      "inputs": [],
      "name": "totalFundsRaised",
      "outputs": [
        {
          "internalType": "uint256",
          "name": "",
          "type": "uint256"
        }
      ],
      "stateMutability": "view",
      "type": "function"
    },
    {
      "inputs": [],
      "name": "totalReleased",
      "outputs": [
        {
          "internalType": "uint256",
          "name": "",
          "type": "uint256"
        }
      ],
      "stateMutability": "view",
      "type": "function"
    },
    {
      "inputs": [
        {
          "internalType": "address",
          "name": "_newGuardian",
          "type": "address"
        }
      ],
      "name": "transferGuardian",
      "outputs": [],
      "stateMutability": "nonpayable",
      "type": "function"
    },
    {
      "inputs": [],
      "name": "unpause",
      "outputs": [],
      "stateMutability": "nonpayable",
      "type": "function"
    },
    {
      "inputs": [],
      "name": "usdcToken",
      "outputs": [
        {
          "internalType": "address",
          "name": "",
          "type": "address"
        }
      ],
      "stateMutability": "view",
      "type": "function"
    },
    {
      "inputs": [
        {
          "internalType": "uint256",
          "name": "_milestoneId",
          "type": "uint256"
        }
      ],
      "name": "vetoMilestone",
      "outputs": [],
      "stateMutability": "nonpayable",
      "type": "function"
    },
    {
      "inputs": [
        {
          "internalType": "uint256",
          "name": "_milestoneId",
          "type": "uint256"
        },
        {
          "internalType": "address",
          "name": "_donor",
          "type": "address"
        },
        {
          "internalType": "bytes",
          "name": "_signature",
          "type": "bytes"
        }
      ],
      "name": "vetoMilestoneWithSignature",
      "outputs": [],
      "stateMutability": "nonpayable",
      "type": "function"
    }
  ],
  "bytecode": "0x60806040523480156200001157600080fd5b50604051620036c5380380620036c58339810160408190526200003491620001df565b6001600160a01b038416620000825760405162461bcd60e51b815260206004820152600f60248201526e24b73b30b634b21031b932b0ba37b960891b60448201526064015b60405180910390fd5b6001600160a01b038216620000cf5760405162461bcd60e51b815260206004820152601260248201527124b73b30b634b2102aa9a221903a37b5b2b760711b604482015260640162000079565b428111620001205760405162461bcd60e51b815260206004820152601a60248201527f446561646c696e65206d75737420626520696e20667574757265000000000000604482015260640162000079565b60008311620001675760405162461bcd60e51b81526020600482015260126024820152710546172676574206d757374206265203e20360741b604482015260640162000079565b60008054336001600160a01b031991821617909155600180549091166001600160a01b039586161790556003929092556002805460049390935592166001600160a81b03199091161790556007805460ff1916905562000228565b80516001600160a01b0381168114620001da57600080fd5b919050565b60008060008060808587031215620001f657600080fd5b6200020185620001c2565b9350602085015192506200021860408601620001c2565b6060959095015193969295505050565b61348d80620002386000396000f3fe608060405234801561001057600080fd5b506004361061025e5760003560e01c806376a5477311610146578063bbdcb63a116100c3578063e89e4ed611610087578063e89e4ed6146104b6578063eb741a24146104c9578063ef9b00d2146104dc578063f4c9b1fd146104e4578063f75fdcaa146104f8578063fcced01d1461050b57600080fd5b8063bbdcb63a14610475578063db2e21bc14610488578063df28897414610490578063e33b7de31461049a578063e800623b146104a357600080fd5b80638f4cf2471161010a5780638f4cf24714610436578063953b8fb81461043e578063a541a2a214610447578063a99589501461045a578063b5545a3c1461046d57600080fd5b806376a54773146103f7578063796b23bb1461040a5780637fb3761e14610413578063809dab6a146102a85780638456cb591461042e57600080fd5b8063427c0c7f116101df57806352a457f8116101a357806352a457f8146103985780635c975abb1461039f5780635cda5443146103bc578063636d6c9d146103c457806368a94dfc146103cc57806372367680146103ef57600080fd5b8063427c0c7f1461033657806342e94c901461033f578063452a93201461035f5780634e054c7a146103725780634fef27721461038557600080fd5b80632442e1cb116102265780632442e1cb146102d9578063253da8bd14610300578063317debf5146103085780633cb5d1001461031b5780633f4ba83a1461032e57600080fd5b8063091954cd1461026357806311eac8551461027857806312065fe0146102a857806317788ae0146102be5780631adff0ee146102d1575b600080fd5b610276610271366004612dc8565b61051e565b005b60025461028b906001600160a01b031681565b6040516001600160a01b0390911681526020015b60405180910390f35b6102b06105ea565b60405190815260200161029f565b6102766102cc366004612e86565b61065c565b6102766109f8565b6102ec6102e7366004612ed4565b610aff565b60405161029f989796959493929190612f49565b600a546102b0565b610276610316366004612ed4565b610d47565b61028b610329366004612ed4565b611020565b61027661104a565b6102b060055481565b6102b061034d366004612dc8565b60096020526000908152604090205481565b60005461028b906001600160a01b031681565b610276610380366004612fc0565b6110f3565b6102b0610393366004612dc8565b6113a3565b600a6102b0565b6007546103ac9060ff1681565b604051901515815260200161029f565b6102b061145d565b6103ac61147a565b6103ac6103da366004612dc8565b600b6020526000908152604090205460ff1681565b6102b0600a81565b61027661040536600461302d565b6114ad565b6102b060045481565b600254600160a01b900460ff165b60405161029f919061305e565b6102766115b4565b6008546102b0565b6102b060035481565b60015461028b906001600160a01b031681565b610276610468366004612ed4565b611661565b610276611783565b610276610483366004613078565b6119be565b610276611e3b565b6102b06202a30081565b6102b060065481565b6102766104b13660046130c5565b61204f565b6102ec6104c4366004612ed4565b61246d565b6103ac6104d73660046130ef565b612660565b6102b0606e81565b60025461042190600160a01b900460ff1681565b610276610506366004612ed4565b6126cc565b610276610519366004612ed4565b6127f4565b6000546001600160a01b031633146105515760405162461bcd60e51b81526004016105489061311b565b60405180910390fd5b6001600160a01b03811661059a5760405162461bcd60e51b815260206004820152601060248201526f24b73b30b634b21033bab0b93234b0b760811b6044820152606401610548565b600080546001600160a01b038381166001600160a01b0319831681178455604051919092169283917f9fe65984b511eb7998b3cd481cfd80c807fcc7f28721a790d33c87dc9c8794859190a35050565b6002546040516370a0823160e01b81523060048201526000916001600160a01b0316906370a0823190602401602060405180830381865afa158015610633573d6000803e3d6000fd5b505050506040513d601f19601f820116820180604052508101906106579190613152565b905090565b6000546001600160a01b031633146106865760405162461bcd60e51b81526004016105489061311b565b60028060028054600160a01b900460ff16908111156106a7576106a7612f33565b146106c45760405162461bcd60e51b81526004016105489061316b565b6001600160a01b03831660009081526009602052604090205461071c5760405162461bcd60e51b815260206004820152601060248201526f4e6f20636f6e747269627574696f6e7360801b6044820152606401610548565b6001600160a01b0383166000908152600b602052604090205460ff16156107775760405162461bcd60e51b815260206004820152600f60248201526e105b1c9958591e4818db185a5b5959608a1b6044820152606401610548565b604080516b10d310525357d4915195539160a21b6020808301919091526bffffffffffffffffffffffff19606087811b8216602c85015230901b1682840152825180830360340181526054830184528051908201207f19457468657265756d205369676e6564204d6573736167653a0a333200000000607484015260908084018290528451808503909101815260b09093019093528151910120600061081d8286612ae8565b9050856001600160a01b0316816001600160a01b0316146108745760405162461bcd60e51b8152602060048201526011602482015270496e76616c6964207369676e617475726560781b6044820152606401610548565b600061087e6105ea565b6005546001600160a01b038916600090815260096020526040812054929350916108a99084906131b1565b6108b391906131c8565b9050600081116108fb5760405162461bcd60e51b81526020600482015260136024820152724e6f20726566756e6420617661696c61626c6560681b6044820152606401610548565b6001600160a01b038881166000818152600b602052604090819020805460ff19166001179055600254905163a9059cbb60e01b81526004810192909252602482018490529091169063a9059cbb906044016020604051808303816000875af115801561096b573d6000803e3d6000fd5b505050506040513d601f19601f8201168201806040525081019061098f91906131ea565b6109ab5760405162461bcd60e51b81526004016105489061320c565b876001600160a01b03167f358fe4192934d3bf28ae181feda1f4bd08ca67f5e2fad55582cce5eb67304ae9826040516109e691815260200190565b60405180910390a25050505050505050565b6000546001600160a01b03163314610a225760405162461bcd60e51b81526004016105489061311b565b6002808054600160a01b900460ff1690811115610a4157610a41612f33565b03610a825760405162461bcd60e51b8152602060048201526011602482015270105b1c9958591e4818d85b98d95b1b1959607a1b6044820152606401610548565b6002805460ff60a01b1916600160a11b1790556040805142815290517fe3805ed669490875ae87c5c8b1ad6ecca0e5e67305a833926d0d4317c4822fc09181900360200190a160026040514281527f8907637228e9c4e96daacb7f99b04c2066349a81bd72e30bb1011a2d545a3d519060200160405180910390a2565b600060608060606000806000806008805490508910610b305760405162461bcd60e51b81526004016105489061323a565b600060088a81548110610b4557610b45613265565b906000526020600020906009020190508060000154816001018260020183600301846004015485600501548660060160009054906101000a900460ff168760070154868054610b939061327b565b80601f0160208091040260200160405190810160405280929190818152602001828054610bbf9061327b565b8015610c0c5780601f10610be157610100808354040283529160200191610c0c565b820191906000526020600020905b815481529060010190602001808311610bef57829003601f168201915b50505050509650858054610c1f9061327b565b80601f0160208091040260200160405190810160405280929190818152602001828054610c4b9061327b565b8015610c985780601f10610c6d57610100808354040283529160200191610c98565b820191906000526020600020905b815481529060010190602001808311610c7b57829003601f168201915b50505050509550848054610cab9061327b565b80601f0160208091040260200160405190810160405280929190818152602001828054610cd79061327b565b8015610d245780601f10610cf957610100808354040283529160200191610d24565b820191906000526020600020905b815481529060010190602001808311610d0757829003601f168201915b505050505094509850985098509850985098509850985050919395975091939597565b6000546001600160a01b03163314610d715760405162461bcd60e51b81526004016105489061311b565b60075460ff1615610d945760405162461bcd60e51b8152600401610548906132b5565b60018060028054600160a01b900460ff1690811115610db557610db5612f33565b14610dd25760405162461bcd60e51b81526004016105489061316b565b6008548210610df35760405162461bcd60e51b81526004016105489061323a565b600060088381548110610e0857610e08613265565b6000918252602082206009909102019150600682015460ff166003811115610e3257610e32612f33565b14610e705760405162461bcd60e51b815260206004820152600e60248201526d43616e6e6f742072656c6561736560901b6044820152606401610548565b8060050154421015610ec45760405162461bcd60e51b815260206004820152601860248201527f436f6f6c696e6720706572696f64206e6f7420656e64656400000000000000006044820152606401610548565b610ecc6105ea565b81541115610f135760405162461bcd60e51b8152602060048201526014602482015273496e73756666696369656e742062616c616e636560601b6044820152606401610548565b6006818101805460ff1916600217905581548154909190600090610f389084906132e1565b9091555050600254600154825460405163a9059cbb60e01b81526001600160a01b039283166004820152602481019190915291169063a9059cbb906044016020604051808303816000875af1158015610f95573d6000803e3d6000fd5b505050506040513d601f19601f82011682018060405250810190610fb991906131ea565b610fd55760405162461bcd60e51b81526004016105489061320c565b60015481546040519081526001600160a01b039091169084907fefa981f9388f17167597c5fee4fc3d24b2b772263e1accbf61cfb2d219fc40f59060200160405180910390a3505050565b600a818154811061103057600080fd5b6000918252602090912001546001600160a01b0316905081565b6000546001600160a01b031633146110745760405162461bcd60e51b81526004016105489061311b565b60075460ff166110b35760405162461bcd60e51b815260206004820152600a602482015269139bdd081c185d5cd95960b21b6044820152606401610548565b6007805460ff191690556040514281527f4e8fee6624a216c6c87fdeaeaab7686889991b2c1ffcd95d51e9a30352e29080906020015b60405180910390a1565b6000546001600160a01b0316331461111d5760405162461bcd60e51b81526004016105489061311b565b60075460ff16156111405760405162461bcd60e51b8152600401610548906132b5565b60018060028054600160a01b900460ff169081111561116157611161612f33565b1461117e5760405162461bcd60e51b81526004016105489061316b565b600084116111c35760405162461bcd60e51b81526020600482015260126024820152710416d6f756e74206d757374206265203e20360741b6044820152606401610548565b600083511161120b5760405162461bcd60e51b815260206004820152601460248201527311195cd8dc9a5c1d1a5bdb881c995c5d5a5c995960621b6044820152606401610548565b61121482612b67565b6112535760405162461bcd60e51b815260206004820152601060248201526f125b9d985b1a590812541194c810d25160821b6044820152606401610548565b61125b6105ea565b8411156112a15760405162461bcd60e51b8152602060048201526014602482015273496e73756666696369656e742062616c616e636560601b6044820152606401610548565b60088054600181018083556000838152919290839081106112c4576112c4613265565b600091825260209091206009909102018681559050600181016112e78682613343565b50600281016112f68582613343565b50426004820181905561130d906202a300906132e1565b6005820181905560068201805460ff191690556000600783015560405183917feab623971136403404ada5e0a985bacef316fe6c3dcb5a8c9a1dc9efd997fdbd9161135b918a918990613403565b60405180910390a2817fe8fb48cf9c969f4b8933c271df021ee973ddc3f9c7b691bdc3dd074081b339b285604051611393919061342b565b60405180910390a2505050505050565b60006002808054600160a01b900460ff16908111156113c4576113c4612f33565b1415806113e957506001600160a01b0382166000908152600b602052604090205460ff165b8061140a57506001600160a01b038216600090815260096020526040902054155b1561141757506000919050565b60006114216105ea565b6005546001600160a01b0385166000908152600960205260409020549192509061144c9083906131b1565b61145691906131c8565b9392505050565b60006064600a60055461147091906131b1565b61065791906131c8565b60008060028054600160a01b900460ff169081111561149b5761149b612f33565b14801561065757505060045442111590565b6000546001600160a01b031633146114d75760405162461bcd60e51b81526004016105489061311b565b60085482106114f85760405162461bcd60e51b81526004016105489061323a565b61150181612b67565b6115405760405162461bcd60e51b815260206004820152601060248201526f125b9d985b1a590812541194c810d25160821b6044820152606401610548565b60006008838154811061155557611555613265565b90600052602060002090600902019050818160030190816115769190613343565b50827fce044a9178556085b4a631c6b39bdf18327de4617aea1fea718a04b9563b568b836040516115a7919061342b565b60405180910390a2505050565b6000546001600160a01b031633146115de5760405162461bcd60e51b81526004016105489061311b565b60075460ff16156116225760405162461bcd60e51b815260206004820152600e60248201526d105b1c9958591e481c185d5cd95960921b6044820152606401610548565b6007805460ff191660011790556040517f11d8c430ae8dff60717610a0356ce3ac35187fc9569e6adfe01d281cc1c167d5906110e99042815260200190565b6000546001600160a01b0316331461168b5760405162461bcd60e51b81526004016105489061311b565b60085481106116ac5760405162461bcd60e51b81526004016105489061323a565b6000600882815481106116c1576116c1613265565b6000918252602090912060099091020190506001600682015460ff1660038111156116ee576116ee612f33565b1461172a5760405162461bcd60e51b815260206004820152600c60248201526b139bdd08191a5cdc1d5d195960a21b6044820152606401610548565b60068101805460ff191690556117436202a300426132e1565b6005820181905560405190815282907ffe22265368702f1be9d639b1cf58548e8540373d07eee344b4696859f2ff63919060200160405180910390a25050565b60028060028054600160a01b900460ff16908111156117a4576117a4612f33565b146117c15760405162461bcd60e51b81526004016105489061316b565b336000908152600960205260409020546118105760405162461bcd60e51b815260206004820152601060248201526f4e6f20636f6e747269627574696f6e7360801b6044820152606401610548565b336000908152600b602052604090205460ff16156118625760405162461bcd60e51b815260206004820152600f60248201526e105b1c9958591e4818db185a5b5959608a1b6044820152606401610548565b600061186c6105ea565b600554336000908152600960205260408120549293509161188e9084906131b1565b61189891906131c8565b9050600081116118e05760405162461bcd60e51b81526020600482015260136024820152724e6f20726566756e6420617661696c61626c6560681b6044820152606401610548565b336000818152600b602052604090819020805460ff19166001179055600254905163a9059cbb60e01b81526004810192909252602482018390526001600160a01b03169063a9059cbb906044016020604051808303816000875af115801561194c573d6000803e3d6000fd5b505050506040513d601f19601f8201168201806040525081019061197091906131ea565b61198c5760405162461bcd60e51b81526004016105489061320c565b60405181815233907f358fe4192934d3bf28ae181feda1f4bd08ca67f5e2fad55582cce5eb67304ae9906020016115a7565b6000546001600160a01b031633146119e85760405162461bcd60e51b81526004016105489061311b565b60075460ff1615611a0b5760405162461bcd60e51b8152600401610548906132b5565b60028060028054600160a01b900460ff1690811115611a2c57611a2c612f33565b03611a495760405162461bcd60e51b81526004016105489061316b565b6008548410611a6a5760405162461bcd60e51b81526004016105489061323a565b600060088581548110611a7f57611a7f613265565b6000918252602082206009909102019150600682015460ff166003811115611aa957611aa9612f33565b14611af65760405162461bcd60e51b815260206004820152601a60248201527f43616e6e6f74207665746f2074686973206d696c6573746f6e650000000000006044820152606401610548565b6001600160a01b038416600090815260096020526040902054611b495760405162461bcd60e51b815260206004820152600b60248201526a2737ba1030903237b737b960a91b6044820152606401610548565b6001600160a01b038416600090815260088201602052604090205460ff1615611ba55760405162461bcd60e51b815260206004820152600e60248201526d105b1c9958591e481d995d1bd95960921b6044820152606401610548565b6001600160a01b0384166000908152600b602052604090205460ff1615611c055760405162461bcd60e51b8152602060048201526014602482015273111bdb9bdc8818db185a5b5959081c99599d5b9960621b6044820152606401610548565b6040516d5645544f5f4d494c4553544f4e4560901b6020820152602e81018690526bffffffffffffffffffffffff19606086811b8216604e84015230901b166062820152600090607601604051602081830303815290604052805190602001209050600081604051602001611ca691907f19457468657265756d205369676e6564204d6573736167653a0a3332000000008152601c810191909152603c0190565b6040516020818303038152906040528051906020012090506000611cca8287612ae8565b9050866001600160a01b0316816001600160a01b031614611d215760405162461bcd60e51b8152602060048201526011602482015270496e76616c6964207369676e617475726560781b6044820152606401610548565b6001600160a01b03871660009081526008850160209081526040808320805460ff19166001179055600990915281205460078601805491929091611d669084906132e1565b92505081905550866001600160a01b0316887f2fe9de7255bec7a57753be2406215c8a88be473f717e0272df7b7ddb7b7addd38660070154604051611dad91815260200190565b60405180910390a360006064600a600554611dc891906131b1565b611dd291906131c8565b90508085600701541115611e305760068501805460ff19166001179055600785015460408051918252602082018390528a917f6720af54eb8ce673d72072599fabf8c75493aeae2cb83d1a228fcc570fca4303910160405180910390a25b505050505050505050565b6000546001600160a01b03163314611e655760405162461bcd60e51b81526004016105489061311b565b600060028054600160a01b900460ff1690811115611e8557611e85612f33565b1480611ead57506002808054600160a01b900460ff1690811115611eab57611eab612f33565b145b611eeb5760405162461bcd60e51b815260206004820152600f60248201526e43616e6e6f7420776974686472617760881b6044820152606401610548565b6002546040516370a0823160e01b81523060048201526000916001600160a01b0316906370a0823190602401602060405180830381865afa158015611f34573d6000803e3d6000fd5b505050506040513d601f19601f82011682018060405250810190611f589190613152565b905060008111611f955760405162461bcd60e51b81526020600482015260086024820152674e6f2066756e647360c01b6044820152606401610548565b60025460005460405163a9059cbb60e01b81526001600160a01b0391821660048201526024810184905291169063a9059cbb906044016020604051808303816000875af1158015611fea573d6000803e3d6000fd5b505050506040513d601f19601f8201168201806040525081019061200e91906131ea565b61204c5760405162461bcd60e51b815260206004820152600f60248201526e151c985b9cd9995c8819985a5b1959608a1b6044820152606401610548565b50565b6000546001600160a01b031633146120795760405162461bcd60e51b81526004016105489061311b565b60075460ff161561209c5760405162461bcd60e51b8152600401610548906132b5565b60008060028054600160a01b900460ff16908111156120bd576120bd612f33565b146120da5760405162461bcd60e51b81526004016105489061316b565b6000821161211f5760405162461bcd60e51b81526020600482015260126024820152710416d6f756e74206d757374206265203e20360741b6044820152606401610548565b6001600160a01b0383166121655760405162461bcd60e51b815260206004820152600d60248201526c24b73b30b634b2103237b737b960991b6044820152606401610548565b6004544211156121ae5760405162461bcd60e51b8152602060048201526014602482015273119d5b991a5b99c81c195c9a5bd908195b99195960621b6044820152606401610548565b60006064606e6003546121c191906131b1565b6121cb91906131c8565b905080836005546121dc91906132e1565b111561221f5760405162461bcd60e51b815260206004820152601260248201527104578636565647320746172676574206361760741b6044820152606401610548565b6002546040516323b872dd60e01b8152336004820152306024820152604481018590526001600160a01b03909116906323b872dd906064016020604051808303816000875af1158015612276573d6000803e3d6000fd5b505050506040513d601f19601f8201168201806040525081019061229a91906131ea565b6122b65760405162461bcd60e51b81526004016105489061320c565b6001600160a01b038416600090815260096020526040812054900361232157600a80546001810182556000919091527fc65a7bb8d6351c1cf70c95a316cc6a92839c986682d98bc35f958f4883f9d2a80180546001600160a01b0319166001600160a01b0386161790555b6001600160a01b038416600090815260096020526040812080548592906123499084906132e1565b92505081905550826005600082825461236291906132e1565b9091555050604080518481524260208201526001600160a01b038616917f4b0304ab2f313234b1cea012339c8f8c3bf2c8bb357d81a579cfdb35d2e3d030910160405180910390a2600354600554101580156123db5750600060028054600160a01b900460ff16908111156123d9576123d9612f33565b145b156124675760028054600160a01b60ff60a01b19909116179055600554604080519182524260208301527f5bc6714ccad33557efe1cb9d18fa771135ab68961f6add3d4bb6f115adec81a4910160405180910390a160016040514281527f8907637228e9c4e96daacb7f99b04c2066349a81bd72e30bb1011a2d545a3d51906020015b60405180910390a25b50505050565b6008818154811061247d57600080fd5b600091825260209091206009909102018054600182018054919350906124a29061327b565b80601f01602080910402602001604051908101604052809291908181526020018280546124ce9061327b565b801561251b5780601f106124f05761010080835404028352916020019161251b565b820191906000526020600020905b8154815290600101906020018083116124fe57829003601f168201915b5050505050908060020180546125309061327b565b80601f016020809104026020016040519081016040528092919081815260200182805461255c9061327b565b80156125a95780601f1061257e576101008083540402835291602001916125a9565b820191906000526020600020905b81548152906001019060200180831161258c57829003601f168201915b5050505050908060030180546125be9061327b565b80601f01602080910402602001604051908101604052809291908181526020018280546125ea9061327b565b80156126375780601f1061260c57610100808354040283529160200191612637565b820191906000526020600020905b81548152906001019060200180831161261a57829003601f168201915b5050506004840154600585015460068601546007909601549495919490935060ff909116915088565b60085460009083106126845760405162461bcd60e51b81526004016105489061323a565b6008838154811061269757612697613265565b600091825260208083206001600160a01b03861684526008600990930201919091019052604090205460ff1690505b92915050565b6000546001600160a01b031633146126f65760405162461bcd60e51b81526004016105489061311b565b60085481106127175760405162461bcd60e51b81526004016105489061323a565b60006008828154811061272c5761272c613265565b6000918252602082206009909102019150600682015460ff16600381111561275657612756612f33565b148061277a57506001600682015460ff16600381111561277857612778612f33565b145b6127b65760405162461bcd60e51b815260206004820152600d60248201526c10d85b9b9bdd0818d85b98d95b609a1b6044820152606401610548565b60068101805460ff1916600317905560405182907fef569bff15c899d1a859c5fc10160121628c730ba6c0e45ecdbbb59c00db492690600090a25050565b60075460ff16156128175760405162461bcd60e51b8152600401610548906132b5565b60028060028054600160a01b900460ff169081111561283857612838612f33565b036128555760405162461bcd60e51b81526004016105489061316b565b60085482106128765760405162461bcd60e51b81526004016105489061323a565b60006008838154811061288b5761288b613265565b6000918252602082206009909102019150600682015460ff1660038111156128b5576128b5612f33565b146129025760405162461bcd60e51b815260206004820152601a60248201527f43616e6e6f74207665746f2074686973206d696c6573746f6e650000000000006044820152606401610548565b3360009081526009602052604090205461294c5760405162461bcd60e51b815260206004820152600b60248201526a2737ba1030903237b737b960a91b6044820152606401610548565b33600090815260088201602052604090205460ff161561299f5760405162461bcd60e51b815260206004820152600e60248201526d105b1c9958591e481d995d1bd95960921b6044820152606401610548565b336000908152600b602052604090205460ff16156129f45760405162461bcd60e51b8152602060048201526012602482015271165bdd4818db185a5b5959081c99599d5b9960721b6044820152606401610548565b3360009081526008820160209081526040808320805460ff19166001179055600990915281205460078301805491929091612a309084906132e1565b90915550506007810154604051908152339084907f2fe9de7255bec7a57753be2406215c8a88be473f717e0272df7b7ddb7b7addd39060200160405180910390a360006064600a600554612a8491906131b1565b612a8e91906131c8565b905080826007015411156124675760068201805460ff191660011790556007820154604080519182526020820183905285917f6720af54eb8ce673d72072599fabf8c75493aeae2cb83d1a228fcc570fca4303910161245e565b600080600080612af785612cc2565b6040805160008152602081018083528b905260ff8316918101919091526060810184905260808101839052929550909350915060019060a0016020604051602081039080840390855afa158015612b52573d6000803e3d6000fd5b5050604051601f190151979650505050505050565b80516000908290602e148015612ba2575080600081518110612b8b57612b8b613265565b6020910101516001600160f81b031916605160f81b145b8015612bd3575080600181518110612bbc57612bbc613265565b6020910101516001600160f81b031916606d60f81b145b15612be15750600192915050565b6031815110158015612c18575080600081518110612c0157612c01613265565b6020910101516001600160f81b031916603160f91b145b8015612c49575080600181518110612c3257612c32613265565b6020910101516001600160f81b031916606160f81b145b8015612c7a575080600281518110612c6357612c63613265565b6020910101516001600160f81b031916603360f91b145b8015612cab575080600381518110612c9457612c94613265565b6020910101516001600160f81b031916607960f81b145b15612cb95750600192915050565b50600092915050565b60008060008351604114612d185760405162461bcd60e51b815260206004820152601860248201527f496e76616c6964207369676e6174757265206c656e67746800000000000000006044820152606401610548565b50505060208101516040820151604183015160ff16601b811015612d4457612d41601b8261343e565b90505b8060ff16601b1480612d5957508060ff16601c145b612da55760405162461bcd60e51b815260206004820152601960248201527f496e76616c6964207369676e617475726520762076616c7565000000000000006044820152606401610548565b9193909250565b80356001600160a01b0381168114612dc357600080fd5b919050565b600060208284031215612dda57600080fd5b61145682612dac565b634e487b7160e01b600052604160045260246000fd5b600082601f830112612e0a57600080fd5b813567ffffffffffffffff80821115612e2557612e25612de3565b604051601f8301601f19908116603f01168101908282118183101715612e4d57612e4d612de3565b81604052838152866020858801011115612e6657600080fd5b836020870160208301376000602085830101528094505050505092915050565b60008060408385031215612e9957600080fd5b612ea283612dac565b9150602083013567ffffffffffffffff811115612ebe57600080fd5b612eca85828601612df9565b9150509250929050565b600060208284031215612ee657600080fd5b5035919050565b6000815180845260005b81811015612f1357602081850181015186830182015201612ef7565b506000602082860101526020601f19601f83011685010191505092915050565b634e487b7160e01b600052602160045260246000fd5b60006101008a8352806020840152612f638184018b612eed565b90508281036040840152612f77818a612eed565b90508281036060840152612f8b8189612eed565b9150508560808301528460a083015260048410612faa57612faa612f33565b60c082019390935260e001529695505050505050565b600080600060608486031215612fd557600080fd5b83359250602084013567ffffffffffffffff80821115612ff457600080fd5b61300087838801612df9565b9350604086013591508082111561301657600080fd5b5061302386828701612df9565b9150509250925092565b6000806040838503121561304057600080fd5b82359150602083013567ffffffffffffffff811115612ebe57600080fd5b602081016003831061307257613072612f33565b91905290565b60008060006060848603121561308d57600080fd5b8335925061309d60208501612dac565b9150604084013567ffffffffffffffff8111156130b957600080fd5b61302386828701612df9565b600080604083850312156130d857600080fd5b6130e183612dac565b946020939093013593505050565b6000806040838503121561310257600080fd5b8235915061311260208401612dac565b90509250929050565b6020808252601b908201527f4f6e6c7920677561726469616e2063616e2063616c6c20746869730000000000604082015260600190565b60006020828403121561316457600080fd5b5051919050565b602080825260169082015275496e76616c69642063616d706169676e20737461746560501b604082015260600190565b634e487b7160e01b600052601160045260246000fd5b80820281158282048414176126c6576126c661319b565b6000826131e557634e487b7160e01b600052601260045260246000fd5b500490565b6000602082840312156131fc57600080fd5b8151801515811461145657600080fd5b6020808252601490820152731554d110c81d1c985b9cd9995c8819985a5b195960621b604082015260600190565b602080825260119082015270496e76616c6964206d696c6573746f6e6560781b604082015260600190565b634e487b7160e01b600052603260045260246000fd5b600181811c9082168061328f57607f821691505b6020821081036132af57634e487b7160e01b600052602260045260246000fd5b50919050565b60208082526012908201527110dbdb9d1c9858dd081a5cc81c185d5cd95960721b604082015260600190565b808201808211156126c6576126c661319b565b601f82111561333e57600081815260208120601f850160051c8101602086101561331b5750805b601f850160051c820191505b8181101561333a57828155600101613327565b5050505b505050565b815167ffffffffffffffff81111561335d5761335d612de3565b6133718161336b845461327b565b846132f4565b602080601f8311600181146133a6576000841561338e5750858301515b600019600386901b1c1916600185901b17855561333a565b600085815260208120601f198616915b828110156133d5578886015182559484019460019091019084016133b6565b50858210156133f35787850151600019600388901b60f8161c191681555b5050505050600190811b01905550565b8381528260208201526060604082015260006134226060830184612eed565b95945050505050565b6020815260006114566020830184612eed565b60ff81811683821601908111156126c6576126c661319b56fea2646970667358221220e76ec9b6cb5f1813e96a26cc89ae769d65af88dcacc8b7f7490859295c53f5a164736f6c63430008140033",
  "linkReferences": {},
  "deployedLinkReferences": {}
}